:100000005CC0000077C0000075C0000073C0000035
:1000100071C000005BC100006DC000006BC000003B
:1000200069C0000067C0000065C0000063C0000038
:10003000BAC100005FC000005DC000005BC00000EE
:1000400059C0000057C000007FC1000053C000002D
:1000500051C000004FC000004DC000004BC0000068
:1000600049C0000047C0000045C0000043C0000078
:1000700041C000003FC000003DC000003BC0000088
:1000800039C0000037C0000035C00000084AD73B27
:100090003BCE016E84BCBFFDC12F3D6C74319ABD57
:1000A00056833DDA3D00C77F11BED9E4BB4C3E917B
:1000B0006BAAAABE000000803F0011241FBECFEF34
:1000C000D0E1DEBFCDBF11E0A0E0B1E0E6EAFEE0A6
:1000D00000E00BBF02C007900D92A032B107D9F724
:1000E00021E0A0E2B1E001C01D92A038B207E1F723
:1000F0008FD3D7C685CF109270000895E4E7F0E063
:10010000108294EA908390819923ECF7909171008A
:10011000987F9830A1F48093730084E880937400F2
:10012000E4E7F0E080818823ECF790917100987FFC
:10013000983139F081E0903429F480E0089581E02D
:10014000089580E008958093730084E8809374009C
:10015000E4E7F0E080818823ECF790917100987FCC
:1001600081E0983209F480E0089584EC8093740073
:10017000E4E7F0E080818823ECF780917300089534
:1001800084E880937400E4E7F0E080818823ECF752
:10019000809173000895BF92CF92DF92EF92FF9209
:1001A0000F931F93CF93DF93C62FD42F6901A6DF40
:1001B00081111CC08D2FC7DF8C2FA0DFB82E8111BD
:1001C00018C00150110949F0E6017601E00EF11E58
:1001D000CCDF8993CE15DF05D9F7E601C00FD11F1B
:1001E000CFDF888384E98093740005C0BB24B39477
:1001F00002C0BB24B3948B2DDF91CF911F910F913F
:10020000FF90EF90DF90CF90BF90089584E98093A6
:1002100074000895CF93DF93DC01EC0120E030E01F
:10022000FD0101900020E9F73197EA1BFB0B2E1727
:100230003F0768F45D9BFECF89918CB98FEC97E006
:100240000197F1F700C000002F5F3F4FE9CFDF912A
:10025000CF91089580912A0190912B0118161906CB
:10026000A4F584E091E0D6DF8CE291E0D3DF8091C9
:100270002C018D3229F488B38F7C88BBC59A0AC0C3
:10028000803329F088B38F7C88BBC49A03C088B3BD
:100290008F7C88BB8CE291E0ACD599231CF49195BE
:1002A000819591099093010180930001ECE2F1E0C6
:1002B0008CE691E01192E817F907E1F710922B0113
:1002C00010922A0185E191E0A5CF08951F920F9227
:1002D0000FB60F9211242F933F934F935F936F9319
:1002E0007F938F939F93AF9320916C0130916D0119
:1002F00040916E0150916F01609170017091710198
:100300008091720190917301A1E05ED520936C0100
:1003100030936D0140936E0150936F0160937001B3
:10032000709371018093720190937301AF919F91CB
:100330008F917F916F915F914F913F912F910F908E
:100340000FBE0F901F9018951F920F920FB60F922D
:1003500011240BB60F928F939F93EF93FF938CB161
:100360008A3081F0E0912A01F0912B01E45DFE4F8B
:10037000808380912A0190912B01019690932B010B
:1003800080932A01FF91EF919F918F910F900BBE67
:100390000F900FBE0F901F90189580E189BF81E0EC
:1003A0008ABF13B808951F920F920FB60F921124AF
:1003B0000BB60F92AF92BF92CF92DF92EF92FF9265
:1003C0000F931F932F933F934F935F936F937F935D
:1003D0008F939F93AF93BF93EF93FF9330916C01F3
:1003E00020916D0180916E0180916F01809170016B
:1003F0008091710180917201809173014AE060E205
:1004000071E0832F922F12D58CE091E003DF80E220
:1004100091E000DF60917C0170917D0180917E010F
:1004200090917F015CD3DC01CB014AE060E271E096
:10043000FDD48FE091E0EEDE80E291E0EBDE85E13D
:1004400091E0E8DEE0910001F0910101A0906C01E3
:10045000B0906D01C0906E01D0906F01E09070017E
:10046000F09071010091720110917301AF0145503C
:100470005109952F990F990B242F352F492F592F5B
:10048000692F792F892FACD459F050F08091020157
:10049000909103010296909303018093020126C07C
:1004A000A0906C01B0906D01C0906E01D0906F0172
:1004B000E0907001F0907101009172011091730150
:1004C00035969F2F990F990B2E2F3F2F492F592F7C
:1004D000692F792F892F84D448F48091020190915B
:1004E000030102979093030180930201209102017E
:1004F000309103018FEF90E0821B930B9C0122F45B
:1005000022273327281B390B23BD10926C01109230
:100510006D0110926E0110926F0110927001109295
:1005200071011092720110927301FF91EF91BF91CE
:10053000AF919F918F917F916F915F914F913F917B
:100540002F911F910F91FF90EF90DF90CF90BF9070
:10055000AF900F900BBE0F900FBE0F901F9018958D
:1005600085B58B6785BD8FEF83BD0895C4DD8AE1B6
:10057000C5DD811105C08BE0E6DD81E0E4DD46DE0E
:100580008FE19EE40197F1F700C000008AE1B6DD3B
:10059000811105C089E0D7DD8DE1D5DD37CE089525
:1005A0004F925F926F927F928F929F92AF92BF9283
:1005B000CF92DF92EF92FF920F931F93CF93DF932F
:1005C000CDB7DEB729970FB6F894DEBF0FBECDBF0B
:1005D000FE013196CE010A961192E817F907E1F76C
:1005E00001E010E09E012F5F3F4F46E06BE18AE1A2
:1005F000D2DD8111E9C089818370813009F0D6C0D4
:1006000009E010E09E012F5F3F4F40E06BE18AE17F
:10061000C2DD8111BDC06A8170E0762F66278981B5
:10062000682B0C8110E0102F00278B81082B809104
:100630007601909177016817790724F47093770118
:100640006093760180917A0190917B0186179707DC
:1006500024F470937B0160937A01809174019091EE
:1006600075010817190724F410937501009374019C
:1006700080917801909179018017910724F410936B
:100680007901009378018090760190907701A09095
:100690007A01B0907B018A149B0409F4A2C0C09037
:1006A0007401D0907501E0907801F0907901CE143A
:1006B000DF0409F496C0C4018A0D9B1D99230CF434
:1006C000019695958795681B790B072E000C880B72
:1006D000990B38D22B013C01B50168197909072E15
:1006E000000C880B990B2ED29B01AC01C301B20107
:1006F0008ED12B013C01C6018E0D9F1D99230CF458
:10070000019695958795B801681B790B072E000C0B
:10071000880B990B17D24B015C01B7016C197D094D
:10072000072E000C880B990B0DD29B01AC01C50163
:10073000B4016DD1A301920113D120E030E044E374
:1007400053E4DCD22BED3FE049E450E460D16B018F
:100750007C0120E030E0A90156D118164CF4C0927B
:100760007C01D0927D01E0927E01F0927F0139C040
:1007700020E030E044EB53E4C701B6017ED0609343
:100780007C0170937D0180937E0190937F0129C04D
:1007900083E191E03FDD2FEF81EE94E02150804036
:1007A0009040E1F700C00000E1DE1BC087E191E06E
:1007B00031DD2FEF81EE94E0215080409040E1F751
:1007C00000C00000D3DE0DC02FEF81EE94E0215079
:1007D00080409040E1F700C000008BE191E01ADD1D
:1007E000C5DE29960FB6F894DEBF0FBECDBFDF91F0
:1007F000CF911F910F91FF90EF90DF90CF90BF901E
:10080000AF909F908F907F906F905F904F900895E2
:10081000ECE2F1E08CE691E01192E817F907E1F7DC
:1008200083E08ABB80EB87BB80E888BB1092900096
:1008300083E389B988E98AB986E080939500ADDDC4
:100840008EB588608EBD8EB583608EBD87B78061A2
:1008500087BF82E19AE79BBD8ABD82DE789486DEFF
:10086000F9DC9EDE2FE788E391E021508040904044
:10087000E1F700C00000F4CF5058BB27AA270ED0E4
:10088000FCC1EDD130F0F2D120F031F49F3F11F4F2
:100890001EF4BDC10EF4E095E7FBB3C1E92FFED114
:1008A00080F3BA17620773078407950718F071F48D
:1008B0009EF516C20EF4E0950B2EBA2FA02D0B015B
:1008C000B90190010C01CA01A0011124FF27591B95
:1008D00099F0593F50F4503E68F11A16F040A22F9B
:1008E000232F342F4427585FF3CF4695379527950C
:1008F000A795F0405395C9F77EF41F16BA0B620B0B
:10090000730B840BBAF09150A1F0FF0FBB1F661F51
:10091000771F881FC2F70EC0BA0F621F731F841F94
:1009200048F4879577956795B795F7959E3F08F0BA
:10093000B3CF9395880F08F09927EE0F9795879579
:1009400008958DD158F080E891E009F49EEF8ED1A2
:1009500028F040E851E059F45EEF09C058C1C0C129
:10096000E92FE0789BD168F3092E052AC1F32617F9
:1009700037074807590738F00E2E07F8E02569F0C9
:10098000E025E0640AC0EF6307F8009407FADB0192
:10099000B9019D01DC01CA01AD01EF9347D06DD1D2
:1009A0000AD05F91552331F02BED3FE049E450FD33
:1009B00049EC63CF0895DF93DD27B92FBF7740E877
:1009C0005FE31616170648075B0710F4D92F8FD17F
:1009D0009F938F937F936F93F4D1ECE8F0E01AD15B
:1009E0004CD12F913F914F915F9194D1DD2349F0EC
:1009F0009058A2EA2AED3FE049EC5FE3D0785D270A
:100A00004DDFDF913AC1D9D008F481E008950CD0D0
:100A100034C12CD140F023D130F021F45F3F19F0E4
:100A2000F0C051115EC1F3C039D198F39923C9F3D5
:100A30005523B1F3951B550BBB27AA2762177307E4
:100A4000840738F09F5F5F4F220F331F441FAA1F98
:100A5000A9F333D00E2E3AF0E0E830D09150504058
:100A6000E695001CCAF729D0FE2F27D0660F771F06
:100A7000881FBB1F261737074807AB07B0E809F0E8
:100A8000BB0B802DBF01FF2793585F4F2AF09E3F7D
:100A9000510568F0B6C025C15F3FECF3983EDCF32A
:100AA000869577956795B795F7959F5FC9F7880FF6
:100AB000911D9695879597F90895E1E0660F771F48
:100AC000881FBB1F621773078407BA0720F0621BD9
:100AD000730B840BBA0BEE1F88F7E095089504D0D2
:100AE0006894B111FEC00895E1D088F09F5790F04E
:100AF000B92F9927B751A0F0D1F0660F771F881F43
:100B0000991F1AF0BA95C9F712C0B13081F0E8D038
:100B1000B1E00895E5C0672F782F8827B85F39F0D6
:100B2000B93FCCF3869577956795B395D9F73EF4A1
:100B300090958095709561957F4F8F4F9F4F089549
:100B4000E89409C097FB3EF4909580957095619567
:100B50007F4F8F4F9F4F9923A9F0F92F96E9BB271D
:100B60009395F695879577956795B795F111F8CF99
:100B7000FAF4BB0F11F460FF1BC06F5F7F4F8F4F04
:100B80009F4F16C0882311F096E911C0772321F0FA
:100B90009EE8872F762F05C0662371F096E8862F92
:100BA00070E060E02AF09A95660F771F881FDAF7E9
:100BB000880F9695879597F90895990F0008550F16
:100BC000AA0BE0E8FEEF16161706E807F907C0F0D3
:100BD00012161306E407F50798F0621B730B840BDB
:100BE000950B39F40A2661F0232B242B252B21F4B5
:100BF00008950A2609F4A140A6958FEF811D811D55
:100C0000089597F99F6780E870E060E008959FEF8E
:100C100080EC0895DF93CF931F930F93FF92EF9291
:100C2000DF927B018C01689405C0DA2EEF0172D04F
:100C3000FE01E894A5912591359145915591AEF32A
:100C4000EF012CDEFE019701A801DA9479F7DF901D
:100C5000EF90FF900F911F91CF91DF9108950024A5
:100C60000A941616170618060906089500240A9411
:100C700012161306140605060895092E0394000C97
:100C800011F4882352F0BB0F40F4BF2B11F460FF26
:100C900004C06F5F7F4F8F4F9F4F089557FD90584F
:100CA000440F551F59F05F3F71F04795880F97FB30
:100CB000991F61F09F3F79F08795089512161306EA
:100CC0001406551FF2CF4695F1DF08C01616170619
:100CD0001806991FF1CF869571056105089408954E
:100CE000E894BB2766277727CB0197F908959B01E6
:100CF000AC0160E070E080E89FE389CE0BD0BDCF0F
:100D0000AEDF28F0B3DF18F0952309F07ACF7FCF5C
:100D10001124E7CFC3DFA0F3959FD1F3950F50E0E7
:100D2000551F629FF001729FBB27F00DB11D639F9D
:100D3000AA27F00DB11DAA1F649F6627B00DA11D43
:100D4000661F829F2227B00DA11D621F739FB00DE9
:100D5000A11D621F839FA00D611D221F749F332759
:100D6000A00D611D231F849F600D211D822F762FF2
:100D70006A2F11249F5750408AF0E1F088234AF0EF
:100D8000EE0FFF1FBB1F661F771F881F915050403B
:100D9000A9F79E3F510570F034CFA3CF5F3FECF32E
:100DA000983EDCF3869577956795B795F795E79527
:100DB0009F5FC1F7FE2B880F911D9695879597F938
:100DC00008959B01AC019ACF0024A7FD00942A0F3F
:100DD000301D401D501D601D701D801D901D08950B
:100DE0002A153B054C055D056E057F0580079107BB
:100DF0000895FC0188279927E89421912032E9F38E
:100E0000293010F02E30C8F32B3239F02D3231F466
:100E1000689403C015D0820F911D219120532A3070
:100E2000C8F31EF4909581959F4F0895BB274A30D3
:100E300031F4992322F4BDE2909581959F4F09C02A
:100E40007AE0979F902D879F802D910D1124089512
:100E5000BB27FB015527AA27880F991FAA1FA41794
:100E600010F0A41B83955051B9F7A05DAA3308F088
:100E7000A95DA193009779F7B111B1931192CB01BC
:100E800000C0DC01FC01672F71917723E1F73297F5
:100E900004C07C916D9370836291AE17BF07C8F355
:060EA0000895F894FFCF55
:100EA60078000A0053706565643A2000533A0020C2
:100EB600483A0065310A0065320A0065330A0000C7
:00000001FF
